{
  "contractName": "Certificate",
  "abi": [
    {
      "anonymous": false,
      "inputs": [
        {
          "indexed": false,
          "internalType": "string",
          "name": "uuid",
          "type": "string"
        },
        {
          "indexed": false,
          "internalType": "address",
          "name": "issuer",
          "type": "address"
        }
      ],
      "name": "CertificateIssued",
      "type": "event"
    },
    {
      "anonymous": false,
      "inputs": [
        {
          "indexed": false,
          "internalType": "string",
          "name": "uuid",
          "type": "string"
        },
        {
          "indexed": false,
          "internalType": "address",
          "name": "issuer",
          "type": "address"
        }
      ],
      "name": "CertificateRevoked",
      "type": "event"
    },
    {
      "inputs": [
        {
          "internalType": "string",
          "name": "",
          "type": "string"
        }
      ],
      "name": "certificates",
      "outputs": [
        {
          "internalType": "string",
          "name": "name",
          "type": "string"
        },
        {
          "internalType": "string",
          "name": "email",
          "type": "string"
        },
        {
          "internalType": "string",
          "name": "fingerprint",
          "type": "string"
        },
        {
          "internalType": "string",
          "name": "authority",
          "type": "string"
        },
        {
          "internalType": "string",
          "name": "certificateType",
          "type": "string"
        },
        {
          "internalType": "string",
          "name": "college",
          "type": "string"
        },
        {
          "internalType": "string",
          "name": "phone",
          "type": "string"
        },
        {
          "internalType": "string",
          "name": "eventName",
          "type": "string"
        },
        {
          "internalType": "string",
          "name": "comment",
          "type": "string"
        },
        {
          "internalType": "string",
          "name": "hash",
          "type": "string"
        },
        {
          "internalType": "string",
          "name": "uuid",
          "type": "string"
        },
        {
          "internalType": "address",
          "name": "issuer",
          "type": "address"
        }
      ],
      "stateMutability": "view",
      "type": "function",
      "constant": true
    },
    {
      "inputs": [
        {
          "internalType": "string",
          "name": "",
          "type": "string"
        }
      ],
      "name": "revoked",
      "outputs": [
        {
          "internalType": "bool",
          "name": "",
          "type": "bool"
        }
      ],
      "stateMutability": "view",
      "type": "function",
      "constant": true
    },
    {
      "inputs": [
        {
          "internalType": "string",
          "name": "_uuid",
          "type": "string"
        },
        {
          "internalType": "string",
          "name": "_name",
          "type": "string"
        },
        {
          "internalType": "string",
          "name": "_email",
          "type": "string"
        },
        {
          "internalType": "string",
          "name": "_fingerprint",
          "type": "string"
        },
        {
          "internalType": "string",
          "name": "_authority",
          "type": "string"
        },
        {
          "internalType": "string",
          "name": "_certificateType",
          "type": "string"
        },
        {
          "internalType": "string",
          "name": "_college",
          "type": "string"
        },
        {
          "internalType": "string",
          "name": "_phone",
          "type": "string"
        },
        {
          "internalType": "string",
          "name": "_eventName",
          "type": "string"
        },
        {
          "internalType": "string",
          "name": "_comment",
          "type": "string"
        },
        {
          "internalType": "string",
          "name": "_hash",
          "type": "string"
        }
      ],
      "name": "issueCertificate",
      "outputs": [],
      "stateMutability": "nonpayable",
      "type": "function"
    },
    {
      "inputs": [
        {
          "internalType": "string",
          "name": "_uuid",
          "type": "string"
        }
      ],
      "name": "revokeCertificate",
      "outputs": [],
      "stateMutability": "nonpayable",
      "type": "function"
    },
    {
      "inputs": [
        {
          "internalType": "string",
          "name": "_uuid",
          "type": "string"
        },
        {
          "internalType": "string",
          "name": "_hash",
          "type": "string"
        },
        {
          "internalType": "string",
          "name": "_fingerprint",
          "type": "string"
        }
      ],
      "name": "verifyCertificate",
      "outputs": [
        {
          "internalType": "bool",
          "name": "",
          "type": "bool"
        }
      ],
      "stateMutability": "view",
      "type": "function",
      "constant": true
    }
  ],
  "bytecode": "0x608060405234801561001057600080fd5b50611ded806100206000396000f3fe608060405234801561001057600080fd5b50600436106100575760003560e01c8063142e15421461005c5780635b982f0e146100785780635e17004c146100a85780638f2b91ea146100d8578063a2f10ace14610113575b600080fd5b6100766004803603810190610071919061156d565b61012f565b005b610092600480360381019061008d91906115ae565b6102bc565b60405161009f9190611a1c565b60405180910390f35b6100c260048036038101906100bd919061156d565b610af6565b6040516100cf9190611a1c565b60405180910390f35b6100f260048036038101906100ed919061156d565b610b2c565b60405161010a9c9b9a99989796959493929190611a67565b60405180910390f35b61012d60048036038101906101289190611645565b61119a565b005b60008160405161013f9190611a05565b9081526020016040518091039020600b0160009054906101000a900473ffffffffffffffffffffffffffffffffffffffff1673ffffffffffffffffffffffffffffffffffffffff163373ffffffffffffffffffffffffffffffffffffffff16146101de576040517f08c379a00000000000000000000000000000000000000000000000000000000081526004016101d590611bee565b60405180910390fd5b6001816040516101ee9190611a05565b908152602001604051809103902060009054906101000a900460ff161561024a576040517f08c379a000000000000000000000000000000000000000000000000000000000815260040161024190611b8e565b60405180910390fd5b6001808260405161025b9190611a05565b908152602001604051809103902060006101000a81548160ff0219169083151502179055507f7b87df98e4ff33f07a9fbda6f93a6b69c498e48444877da8c54a83d3a43aee5b81336040516102b1929190611a37565b60405180910390a150565b6000806000856040516102cf9190611a05565b9081526020016040518091039020604051806101800160405290816000820180546102f990611d16565b80601f016020809104026020016040519081016040528092919081815260200182805461032590611d16565b80156103725780601f1061034757610100808354040283529160200191610372565b820191906000526020600020905b81548152906001019060200180831161035557829003601f168201915b5050505050815260200160018201805461038b90611d16565b80601f01602080910402602001604051908101604052809291908181526020018280546103b790611d16565b80156104045780601f106103d957610100808354040283529160200191610404565b820191906000526020600020905b8154815290600101906020018083116103e757829003601f168201915b5050505050815260200160028201805461041d90611d16565b80601f016020809104026020016040519081016040528092919081815260200182805461044990611d16565b80156104965780601f1061046b57610100808354040283529160200191610496565b820191906000526020600020905b81548152906001019060200180831161047957829003601f168201915b505050505081526020016003820180546104af90611d16565b80601f01602080910402602001604051908101604052809291908181526020018280546104db90611d16565b80156105285780601f106104fd57610100808354040283529160200191610528565b820191906000526020600020905b81548152906001019060200180831161050b57829003601f168201915b5050505050815260200160048201805461054190611d16565b80601f016020809104026020016040519081016040528092919081815260200182805461056d90611d16565b80156105ba5780601f1061058f576101008083540402835291602001916105ba565b820191906000526020600020905b81548152906001019060200180831161059d57829003601f168201915b505050505081526020016005820180546105d390611d16565b80601f01602080910402602001604051908101604052809291908181526020018280546105ff90611d16565b801561064c5780601f106106215761010080835404028352916020019161064c565b820191906000526020600020905b81548152906001019060200180831161062f57829003601f168201915b5050505050815260200160068201805461066590611d16565b80601f016020809104026020016040519081016040528092919081815260200182805461069190611d16565b80156106de5780601f106106b3576101008083540402835291602001916106de565b820191906000526020600020905b8154815290600101906020018083116106c157829003601f168201915b505050505081526020016007820180546106f790611d16565b80601f016020809104026020016040519081016040528092919081815260200182805461072390611d16565b80156107705780601f1061074557610100808354040283529160200191610770565b820191906000526020600020905b81548152906001019060200180831161075357829003601f168201915b5050505050815260200160088201805461078990611d16565b80601f01602080910402602001604051908101604052809291908181526020018280546107b590611d16565b80156108025780601f106107d757610100808354040283529160200191610802565b820191906000526020600020905b8154815290600101906020018083116107e557829003601f168201915b5050505050815260200160098201805461081b90611d16565b80601f016020809104026020016040519081016040528092919081815260200182805461084790611d16565b80156108945780601f1061086957610100808354040283529160200191610894565b820191906000526020600020905b81548152906001019060200180831161087757829003601f168201915b50505050508152602001600a820180546108ad90611d16565b80601f01602080910402602001604051908101604052809291908181526020018280546108d990611d16565b80156109265780601f106108fb57610100808354040283529160200191610926565b820191906000526020600020905b81548152906001019060200180831161090957829003601f168201915b50505050508152602001600b820160009054906101000a900473ffffffffffffffffffffffffffffffffffffffff1673ffffffffffffffffffffffffffffffffffffffff1673ffffffffffffffffffffffffffffffffffffffff1681525050905060008161014001515114156109d1576040517f08c379a00000000000000000000000000000000000000000000000000000000081526004016109c890611bae565b60405180910390fd5b6001856040516109e19190611a05565b908152602001604051809103902060009054906101000a900460ff1615610a3d576040517f08c379a0000000000000000000000000000000000000000000000000000000008152600401610a3490611b6e565b60405180910390fd5b83604051602001610a4e9190611a05565b60405160208183030381529060405280519060200120816101200151604051602001610a7a9190611a05565b60405160208183030381529060405280519060200120148015610aec575082604051602001610aa99190611a05565b604051602081830303815290604052805190602001208160400151604051602001610ad49190611a05565b60405160208183030381529060405280519060200120145b9150509392505050565b6001818051602081018201805184825260208301602085012081835280955050505050506000915054906101000a900460ff1681565b600081805160208101820180518482526020830160208501208183528095505050505050600091509050806000018054610b6590611d16565b80601f0160208091040260200160405190810160405280929190818152602001828054610b9190611d16565b8015610bde5780601f10610bb357610100808354040283529160200191610bde565b820191906000526020600020905b815481529060010190602001808311610bc157829003601f168201915b505050505090806001018054610bf390611d16565b80601f0160208091040260200160405190810160405280929190818152602001828054610c1f90611d16565b8015610c6c5780601f10610c4157610100808354040283529160200191610c6c565b820191906000526020600020905b815481529060010190602001808311610c4f57829003601f168201915b505050505090806002018054610c8190611d16565b80601f0160208091040260200160405190810160405280929190818152602001828054610cad90611d16565b8015610cfa5780601f10610ccf57610100808354040283529160200191610cfa565b820191906000526020600020905b815481529060010190602001808311610cdd57829003601f168201915b505050505090806003018054610d0f90611d16565b80601f0160208091040260200160405190810160405280929190818152602001828054610d3b90611d16565b8015610d885780601f10610d5d57610100808354040283529160200191610d88565b820191906000526020600020905b815481529060010190602001808311610d6b57829003601f168201915b505050505090806004018054610d9d90611d16565b80601f0160208091040260200160405190810160405280929190818152602001828054610dc990611d16565b8015610e165780601f10610deb57610100808354040283529160200191610e16565b820191906000526020600020905b815481529060010190602001808311610df957829003601f168201915b505050505090806005018054610e2b90611d16565b80601f0160208091040260200160405190810160405280929190818152602001828054610e5790611d16565b8015610ea45780601f10610e7957610100808354040283529160200191610ea4565b820191906000526020600020905b815481529060010190602001808311610e8757829003601f168201915b505050505090806006018054610eb990611d16565b80601f0160208091040260200160405190810160405280929190818152602001828054610ee590611d16565b8015610f325780601f10610f0757610100808354040283529160200191610f32565b820191906000526020600020905b815481529060010190602001808311610f1557829003601f168201915b505050505090806007018054610f4790611d16565b80601f0160208091040260200160405190810160405280929190818152602001828054610f7390611d16565b8015610fc05780601f10610f9557610100808354040283529160200191610fc0565b820191906000526020600020905b815481529060010190602001808311610fa357829003601f168201915b505050505090806008018054610fd590611d16565b80601f016020809104026020016040519081016040528092919081815260200182805461100190611d16565b801561104e5780601f106110235761010080835404028352916020019161104e565b820191906000526020600020905b81548152906001019060200180831161103157829003601f168201915b50505050509080600901805461106390611d16565b80601f016020809104026020016040519081016040528092919081815260200182805461108f90611d16565b80156110dc5780601f106110b1576101008083540402835291602001916110dc565b820191906000526020600020905b8154815290600101906020018083116110bf57829003601f168201915b50505050509080600a0180546110f190611d16565b80601f016020809104026020016040519081016040528092919081815260200182805461111d90611d16565b801561116a5780601f1061113f5761010080835404028352916020019161116a565b820191906000526020600020905b81548152906001019060200180831161114d57829003601f168201915b50505050509080600b0160009054906101000a900473ffffffffffffffffffffffffffffffffffffffff1690508c565b6000808c6040516111ab9190611a05565b9081526020016040518091039020600a0180546111c790611d16565b905014611209576040517f08c379a000000000000000000000000000000000000000000000000000000000815260040161120090611bce565b60405180910390fd5b6040518061018001604052808b81526020018a81526020018981526020018881526020018781526020018681526020018581526020018481526020018381526020018281526020018c81526020013373ffffffffffffffffffffffffffffffffffffffff1681525060008c6040516112819190611a05565b908152602001604051809103902060008201518160000190805190602001906112ab929190611462565b5060208201518160010190805190602001906112c8929190611462565b5060408201518160020190805190602001906112e5929190611462565b506060820151816003019080519060200190611302929190611462565b50608082015181600401908051906020019061131f929190611462565b5060a082015181600501908051906020019061133c929190611462565b5060c0820151816006019080519060200190611359929190611462565b5060e0820151816007019080519060200190611376929190611462565b50610100820151816008019080519060200190611394929190611462565b506101208201518160090190805190602001906113b2929190611462565b5061014082015181600a0190805190602001906113d0929190611462565b5061016082015181600b0160006101000a81548173ffffffffffffffffffffffffffffffffffffffff021916908373ffffffffffffffffffffffffffffffffffffffff1602179055509050507fada8a8d27187fe2bc19217fb8e0301fa8380a4d850748240b8d735f2a8fc06218b3360405161144d929190611a37565b60405180910390a15050505050505050505050565b82805461146e90611d16565b90600052602060002090601f01602090048101928261149057600085556114d7565b82601f106114a957805160ff19168380011785556114d7565b828001600101855582156114d7579182015b828111156114d65782518255916020019190600101906114bb565b5b5090506114e491906114e8565b5090565b5b808211156115015760008160009055506001016114e9565b5090565b600061151861151384611c3f565b611c0e565b90508281526020810184848401111561153057600080fd5b61153b848285611cd4565b509392505050565b600082601f83011261155457600080fd5b8135611564848260208601611505565b91505092915050565b60006020828403121561157f57600080fd5b600082013567ffffffffffffffff81111561159957600080fd5b6115a584828501611543565b91505092915050565b6000806000606084860312156115c357600080fd5b600084013567ffffffffffffffff8111156115dd57600080fd5b6115e986828701611543565b935050602084013567ffffffffffffffff81111561160657600080fd5b61161286828701611543565b925050604084013567ffffffffffffffff81111561162f57600080fd5b61163b86828701611543565b9150509250925092565b60008060008060008060008060008060006101608c8e03121561166757600080fd5b60008c013567ffffffffffffffff81111561168157600080fd5b61168d8e828f01611543565b9b505060208c013567ffffffffffffffff8111156116aa57600080fd5b6116b68e828f01611543565b9a505060408c013567ffffffffffffffff8111156116d357600080fd5b6116df8e828f01611543565b99505060608c013567ffffffffffffffff8111156116fc57600080fd5b6117088e828f01611543565b98505060808c013567ffffffffffffffff81111561172557600080fd5b6117318e828f01611543565b97505060a08c013567ffffffffffffffff81111561174e57600080fd5b61175a8e828f01611543565b96505060c08c013567ffffffffffffffff81111561177757600080fd5b6117838e828f01611543565b95505060e08c013567ffffffffffffffff8111156117a057600080fd5b6117ac8e828f01611543565b9450506101008c013567ffffffffffffffff8111156117ca57600080fd5b6117d68e828f01611543565b9350506101208c013567ffffffffffffffff8111156117f457600080fd5b6118008e828f01611543565b9250506101408c013567ffffffffffffffff81111561181e57600080fd5b61182a8e828f01611543565b9150509295989b509295989b9093969950565b61184681611c96565b82525050565b61185581611ca8565b82525050565b600061186682611c6f565b6118708185611c7a565b9350611880818560208601611ce3565b61188981611da6565b840191505092915050565b600061189f82611c6f565b6118a98185611c8b565b93506118b9818560208601611ce3565b80840191505092915050565b60006118d2601383611c7a565b91507f4365727469666963617465207265766f6b6564000000000000000000000000006000830152602082019050919050565b6000611912601b83611c7a565b91507f436572746966696361746520616c7265616479207265766f6b656400000000006000830152602082019050919050565b6000611952601583611c7a565b91507f4365727469666963617465206e6f7420666f756e6400000000000000000000006000830152602082019050919050565b6000611992601a83611c7a565b91507f436572746966696361746520616c7265616479206578697374730000000000006000830152602082019050919050565b60006119d2601883611c7a565b91507f4e6f7420617574686f72697a656420746f207265766f6b6500000000000000006000830152602082019050919050565b6000611a118284611894565b915081905092915050565b6000602082019050611a31600083018461184c565b92915050565b60006040820190508181036000830152611a51818561185b565b9050611a60602083018461183d565b9392505050565b6000610180820190508181036000830152611a82818f61185b565b90508181036020830152611a96818e61185b565b90508181036040830152611aaa818d61185b565b90508181036060830152611abe818c61185b565b90508181036080830152611ad2818b61185b565b905081810360a0830152611ae6818a61185b565b905081810360c0830152611afa818961185b565b905081810360e0830152611b0e818861185b565b9050818103610100830152611b23818761185b565b9050818103610120830152611b38818661185b565b9050818103610140830152611b4d818561185b565b9050611b5d61016083018461183d565b9d9c50505050505050505050505050565b60006020820190508181036000830152611b87816118c5565b9050919050565b60006020820190508181036000830152611ba781611905565b9050919050565b60006020820190508181036000830152611bc781611945565b9050919050565b60006020820190508181036000830152611be781611985565b9050919050565b60006020820190508181036000830152611c07816119c5565b9050919050565b6000604051905081810181811067ffffffffffffffff82111715611c3557611c34611d77565b5b8060405250919050565b600067ffffffffffffffff821115611c5a57611c59611d77565b5b601f19601f8301169050602081019050919050565b600081519050919050565b600082825260208201905092915050565b600081905092915050565b6000611ca182611cb4565b9050919050565b60008115159050919050565b600073ffffffffffffffffffffffffffffffffffffffff82169050919050565b82818337600083830152505050565b60005b83811015611d01578082015181840152602081019050611ce6565b83811115611d10576000848401525b50505050565b60006002820490506001821680611d2e57607f821691505b60208210811415611d4257611d41611d48565b5b50919050565b7f4e487b7100000000000000000000000000000000000000000000000000000000600052602260045260246000fd5b7f4e487b7100000000000000000000000000000000000000000000000000000000600052604160045260246000fd5b6000601f19601f830116905091905056fea26469706673582212205fd1c7f522dfc05b233e8dfaadcc8471c8554ab17a96dda3d12e61612847416b64736f6c63430008000033",
  "immutableReferences": {},
  "source": "// SPDX-License-Identifier: MIT\npragma solidity ^0.8.0;\n\ncontract Certificate {\n\n    struct Cert {\n        string name;\n        string email;\n        string fingerprint;\n        string authority;\n        string certificateType;\n        string college;\n        string phone;\n        string eventName; // Changed from event to eventName\n        string comment;\n        string hash;\n        string uuid;\n        address issuer;\n    }\n\n    mapping(string => Cert) public certificates;\n    mapping(string => bool) public revoked;\n\n    event CertificateIssued(string uuid, address issuer);\n    event CertificateRevoked(string uuid, address issuer);\n\n    // Issue a new certificate\n    function issueCertificate(\n        string memory _uuid,\n        string memory _name,\n        string memory _email,\n        string memory _fingerprint,\n        string memory _authority,\n        string memory _certificateType,\n        string memory _college,\n        string memory _phone,\n        string memory _eventName, // Changed from _event to _eventName\n        string memory _comment,\n        string memory _hash\n    ) public {\n        require(bytes(certificates[_uuid].uuid).length == 0, \"Certificate already exists\");\n\n        certificates[_uuid] = Cert({\n            name: _name,\n            email: _email,\n            fingerprint: _fingerprint,\n            authority: _authority,\n            certificateType: _certificateType,\n            college: _college,\n            phone: _phone,\n            eventName: _eventName, // Changed from event to eventName\n            comment: _comment,\n            hash: _hash,\n            uuid: _uuid,\n            issuer: msg.sender\n        });\n\n        emit CertificateIssued(_uuid, msg.sender);\n    }\n\n    // Revoke an existing certificate\n    function revokeCertificate(string memory _uuid) public {\n        require(msg.sender == certificates[_uuid].issuer, \"Not authorized to revoke\");\n        require(!revoked[_uuid], \"Certificate already revoked\");\n\n        revoked[_uuid] = true;\n\n        emit CertificateRevoked(_uuid, msg.sender);\n    }\n\n    // Verify a certificate\n    function verifyCertificate(string memory _uuid, string memory _hash, string memory _fingerprint) public view returns (bool) {\n        Cert memory cert = certificates[_uuid];\n        require(bytes(cert.uuid).length != 0, \"Certificate not found\");\n        require(!revoked[_uuid], \"Certificate revoked\");\n\n        return (keccak256(abi.encodePacked(cert.hash)) == keccak256(abi.encodePacked(_hash)) &&\n                keccak256(abi.encodePacked(cert.fingerprint)) == keccak256(abi.encodePacked(_fingerprint)));\n    }\n}\n",
  "sourcePath": "/home/krishnadev/projects/BioSecureCert/contracts/Certificate.sol",
  "compiler": {
    "name": "solc",
    "version": "0.8.0+commit.c7dfd78e.Emscripten.clang"
  },
  "schemaVersion": "3.4.16",
  "updatedAt": "2024-08-07T15:43:58.964Z",
  "networkType": "ethereum",
  "devdoc": {
    "kind": "dev",
    "methods": {},
    "version": 1
  },
  "userdoc": {
    "kind": "user",
    "methods": {},
    "version": 1
  }
}