{
  "contractName": "UserManagement",
  "abi": [
    {
      "anonymous": false,
      "inputs": [
        {
          "indexed": false,
          "internalType": "address",
          "name": "userAddress",
          "type": "address"
        },
        {
          "indexed": false,
          "internalType": "string",
          "name": "username",
          "type": "string"
        }
      ],
      "name": "UserRegistered",
      "type": "event"
    },
    {
      "inputs": [
        {
          "internalType": "string",
          "name": "_username",
          "type": "string"
        },
        {
          "internalType": "bytes32",
          "name": "_passwordHash",
          "type": "bytes32"
        }
      ],
      "name": "registerUser",
      "outputs": [],
      "stateMutability": "nonpayable",
      "type": "function"
    },
    {
      "inputs": [
        {
          "internalType": "string",
          "name": "_username",
          "type": "string"
        },
        {
          "internalType": "bytes32",
          "name": "_passwordHash",
          "type": "bytes32"
        }
      ],
      "name": "loginUser",
      "outputs": [
        {
          "internalType": "bool",
          "name": "",
          "type": "bool"
        }
      ],
      "stateMutability": "view",
      "type": "function",
      "constant": true
    }
  ],
  "bytecode": "0x608060405234801561001057600080fd5b506108bd806100206000396000f3fe608060405234801561001057600080fd5b50600436106100365760003560e01c8063380eeece1461003b57806368ae55631461006b575b600080fd5b610055600480360381019061005091906104bf565b610087565b6040516100629190610662565b60405180910390f35b610085600480360381019061008091906104bf565b610200565b005b60008060008460405161009a919061061b565b90815260200160405180910390206040518060600160405290816000820180546100c3906107cf565b80601f01602080910402602001604051908101604052809291908181526020018280546100ef906107cf565b801561013c5780601f106101115761010080835404028352916020019161013c565b820191906000526020600020905b81548152906001019060200180831161011f57829003601f168201915b50505050508152602001600182015481526020016002820160009054906101000a900473ffffffffffffffffffffffffffffffffffffffff1673ffffffffffffffffffffffffffffffffffffffff1673ffffffffffffffffffffffffffffffffffffffff16815250509050600081600001515114156101f0576040517f08c379a00000000000000000000000000000000000000000000000000000000081526004016101e79061067d565b60405180910390fd5b8281602001511491505092915050565b600182604051610210919061061b565b908152602001604051809103902060009054906101000a900460ff161561026c576040517f08c379a00000000000000000000000000000000000000000000000000000000081526004016102639061069d565b60405180910390fd5b60405180606001604052808381526020018281526020013373ffffffffffffffffffffffffffffffffffffffff168152506000836040516102ad919061061b565b908152602001604051809103902060008201518160000190805190602001906102d792919061039f565b506020820151816001015560408201518160020160006101000a81548173ffffffffffffffffffffffffffffffffffffffff021916908373ffffffffffffffffffffffffffffffffffffffff1602179055509050506001808360405161033d919061061b565b908152602001604051809103902060006101000a81548160ff0219169083151502179055507f48cac28ad4dc618e15f4c2dd5e97751182f166de97b25618318b2112aa951a2f3383604051610393929190610632565b60405180910390a15050565b8280546103ab906107cf565b90600052602060002090601f0160209004810192826103cd5760008555610414565b82601f106103e657805160ff1916838001178555610414565b82800160010185558215610414579182015b828111156104135782518255916020019190600101906103f8565b5b5090506104219190610425565b5090565b5b8082111561043e576000816000905550600101610426565b5090565b6000610455610450846106ee565b6106bd565b90508281526020810184848401111561046d57600080fd5b61047884828561078d565b509392505050565b60008135905061048f81610870565b92915050565b600082601f8301126104a657600080fd5b81356104b6848260208601610442565b91505092915050565b600080604083850312156104d257600080fd5b600083013567ffffffffffffffff8111156104ec57600080fd5b6104f885828601610495565b925050602061050985828601610480565b9150509250929050565b61051c81610745565b82525050565b61052b81610757565b82525050565b600061053c8261071e565b6105468185610729565b935061055681856020860161079c565b61055f8161085f565b840191505092915050565b60006105758261071e565b61057f818561073a565b935061058f81856020860161079c565b80840191505092915050565b60006105a8601383610729565b91507f55736572206e6f742072656769737465726564000000000000000000000000006000830152602082019050919050565b60006105e8601783610729565b91507f557365726e616d6520616c7265616479206578697374730000000000000000006000830152602082019050919050565b6000610627828461056a565b915081905092915050565b60006040820190506106476000830185610513565b81810360208301526106598184610531565b90509392505050565b60006020820190506106776000830184610522565b92915050565b600060208201905081810360008301526106968161059b565b9050919050565b600060208201905081810360008301526106b6816105db565b9050919050565b6000604051905081810181811067ffffffffffffffff821117156106e4576106e3610830565b5b8060405250919050565b600067ffffffffffffffff82111561070957610708610830565b5b601f19601f8301169050602081019050919050565b600081519050919050565b600082825260208201905092915050565b600081905092915050565b60006107508261076d565b9050919050565b60008115159050919050565b6000819050919050565b600073ffffffffffffffffffffffffffffffffffffffff82169050919050565b82818337600083830152505050565b60005b838110156107ba57808201518184015260208101905061079f565b838111156107c9576000848401525b50505050565b600060028204905060018216806107e757607f821691505b602082108114156107fb576107fa610801565b5b50919050565b7f4e487b7100000000000000000000000000000000000000000000000000000000600052602260045260246000fd5b7f4e487b7100000000000000000000000000000000000000000000000000000000600052604160045260246000fd5b6000601f19601f8301169050919050565b61087981610763565b811461088457600080fd5b5056fea264697066735822122066ba8ea12ef67a59e9abbaae26152f982271389c1c3bca19024150338861df7364736f6c63430008000033",
  "immutableReferences": {},
  "source": "// SPDX-License-Identifier: MIT\npragma solidity ^0.8.0;\n\ncontract UserManagement {\n    struct User {\n        string username;\n        bytes32 passwordHash;\n        address userAddress;\n    }\n\n    mapping(string => User) private users; // Map by username\n    mapping(string => bool) private usernames;\n\n    event UserRegistered(address userAddress, string username);\n\n    // Register a new user\n    function registerUser(string memory _username, bytes32 _passwordHash) public {\n        require(!usernames[_username], \"Username already exists\");\n\n        users[_username] = User({\n            username: _username,\n            passwordHash: _passwordHash,\n            userAddress: msg.sender\n        });\n\n        usernames[_username] = true;\n\n        emit UserRegistered(msg.sender, _username);\n    }\n\n    // Verify user login\n    function loginUser(string memory _username, bytes32 _passwordHash) public view returns (bool) {\n        User memory user = users[_username];\n        require(bytes(user.username).length != 0, \"User not registered\");\n\n        return (user.passwordHash == _passwordHash);\n    }\n}\n",
  "sourcePath": "/home/krishnadev/projects/BioSecureCert/contracts/User.sol",
  "compiler": {
    "name": "solc",
    "version": "0.8.0+commit.c7dfd78e.Emscripten.clang"
  },
  "schemaVersion": "3.4.16",
  "updatedAt": "2024-08-07T15:43:59.070Z",
  "networkType": "ethereum",
  "devdoc": {
    "kind": "dev",
    "methods": {},
    "version": 1
  },
  "userdoc": {
    "kind": "user",
    "methods": {},
    "version": 1
  }
}